{
  "_format": "hh-sol-artifact-1",
  "contractName": "LuminaFuel",
  "sourceName": "contracts/LuminaFuel.sol",
  "abi": [
    {
      "inputs": [],
      "stateMutability": "nonpayable",
      "type": "constructor"
    },
    {
      "anonymous": false,
      "inputs": [
        {
          "indexed": true,
          "internalType": "address",
          "name": "user",
          "type": "address"
        },
        {
          "indexed": false,
          "internalType": "uint256",
          "name": "amount",
          "type": "uint256"
        }
      ],
      "name": "Debited",
      "type": "event"
    },
    {
      "anonymous": false,
      "inputs": [
        {
          "indexed": true,
          "internalType": "address",
          "name": "user",
          "type": "address"
        },
        {
          "indexed": false,
          "internalType": "uint256",
          "name": "amount",
          "type": "uint256"
        }
      ],
      "name": "Deposited",
      "type": "event"
    },
    {
      "inputs": [
        {
          "internalType": "address",
          "name": "",
          "type": "address"
        }
      ],
      "name": "balances",
      "outputs": [
        {
          "internalType": "uint256",
          "name": "",
          "type": "uint256"
        }
      ],
      "stateMutability": "view",
      "type": "function"
    },
    {
      "inputs": [
        {
          "internalType": "address",
          "name": "user",
          "type": "address"
        },
        {
          "internalType": "uint256",
          "name": "amount",
          "type": "uint256"
        }
      ],
      "name": "debit",
      "outputs": [],
      "stateMutability": "nonpayable",
      "type": "function"
    },
    {
      "inputs": [],
      "name": "deposit",
      "outputs": [],
      "stateMutability": "payable",
      "type": "function"
    },
    {
      "inputs": [
        {
          "internalType": "address",
          "name": "user",
          "type": "address"
        }
      ],
      "name": "getBalance",
      "outputs": [
        {
          "internalType": "uint256",
          "name": "",
          "type": "uint256"
        }
      ],
      "stateMutability": "view",
      "type": "function"
    },
    {
      "inputs": [],
      "name": "owner",
      "outputs": [
        {
          "internalType": "address",
          "name": "",
          "type": "address"
        }
      ],
      "stateMutability": "view",
      "type": "function"
    },
    {
      "inputs": [],
      "name": "withdraw",
      "outputs": [],
      "stateMutability": "nonpayable",
      "type": "function"
    }
  ],
  "bytecode": "0x608060405234801561001057600080fd5b50336000806101000a81548173ffffffffffffffffffffffffffffffffffffffff021916908373ffffffffffffffffffffffffffffffffffffffff160217905550610859806100606000396000f3fe6080604052600436106100555760003560e01c806327e235e31461005a5780633ccfd60b14610097578063636be27a146100ae5780638da5cb5b146100d7578063d0e30db014610102578063f8b2cb4f1461010c575b600080fd5b34801561006657600080fd5b50610081600480360381019061007c9190610586565b610149565b60405161008e91906105cc565b60405180910390f35b3480156100a357600080fd5b506100ac610161565b005b3480156100ba57600080fd5b506100d560048036038101906100d09190610613565b610258565b005b3480156100e357600080fd5b506100ec610410565b6040516100f99190610662565b60405180910390f35b61010a610434565b005b34801561011857600080fd5b50610133600480360381019061012e9190610586565b6104da565b60405161014091906105cc565b60405180910390f35b60016020528060005260406000206000915090505481565b60008054906101000a900473ffffffffffffffffffffffffffffffffffffffff1673ffffffffffffffffffffffffffffffffffffffff163373ffffffffffffffffffffffffffffffffffffffff16146101ef576040517f08c379a00000000000000000000000000000000000000000000000000000000081526004016101e690610700565b60405180910390fd5b60008054906101000a900473ffffffffffffffffffffffffffffffffffffffff1673ffffffffffffffffffffffffffffffffffffffff166108fc479081150290604051600060405180830381858888f19350505050158015610255573d6000803e3d6000fd5b50565b60008054906101000a900473ffffffffffffffffffffffffffffffffffffffff1673ffffffffffffffffffffffffffffffffffffffff163373ffffffffffffffffffffffffffffffffffffffff16146102e6576040517f08c379a00000000000000000000000000000000000000000000000000000000081526004016102dd90610700565b60405180910390fd5b80600160008473ffffffffffffffffffffffffffffffffffffffff1673ffffffffffffffffffffffffffffffffffffffff168152602001908152602001600020541015610368576040517f08c379a000000000000000000000000000000000000000000000000000000000815260040161035f9061076c565b60405180910390fd5b80600160008473ffffffffffffffffffffffffffffffffffffffff1673ffffffffffffffffffffffffffffffffffffffff16815260200190815260200160002060008282546103b791906107bb565b925050819055508173ffffffffffffffffffffffffffffffffffffffff167f5615852435c3416acd6f9548e81d14646e95b7f052cd63df868a3a2d006351f68260405161040491906105cc565b60405180910390a25050565b60008054906101000a900473ffffffffffffffffffffffffffffffffffffffff1681565b34600160003373ffffffffffffffffffffffffffffffffffffffff1673ffffffffffffffffffffffffffffffffffffffff168152602001908152602001600020600082825461048391906107ef565b925050819055503373ffffffffffffffffffffffffffffffffffffffff167f2da466a7b24304f47e87fa2e1e5a81b9831ce54fec19055ce277ca2f39ba42c4346040516104d091906105cc565b60405180910390a2565b6000600160008373ffffffffffffffffffffffffffffffffffffffff1673ffffffffffffffffffffffffffffffffffffffff168152602001908152602001600020549050919050565b600080fd5b600073ffffffffffffffffffffffffffffffffffffffff82169050919050565b600061055382610528565b9050919050565b61056381610548565b811461056e57600080fd5b50565b6000813590506105808161055a565b92915050565b60006020828403121561059c5761059b610523565b5b60006105aa84828501610571565b91505092915050565b6000819050919050565b6105c6816105b3565b82525050565b60006020820190506105e160008301846105bd565b92915050565b6105f0816105b3565b81146105fb57600080fd5b50565b60008135905061060d816105e7565b92915050565b6000806040838503121561062a57610629610523565b5b600061063885828601610571565b9250506020610649858286016105fe565b9150509250929050565b61065c81610548565b82525050565b60006020820190506106776000830184610653565b92915050565b600082825260208201905092915050565b7f4f6e6c79206f776e65722063616e2063616c6c20746869732066756e6374696f60008201527f6e00000000000000000000000000000000000000000000000000000000000000602082015250565b60006106ea60218361067d565b91506106f58261068e565b604082019050919050565b60006020820190508181036000830152610719816106dd565b9050919050565b7f496e73756666696369656e74206675656c2062616c616e636500000000000000600082015250565b600061075660198361067d565b915061076182610720565b602082019050919050565b6000602082019050818103600083015261078581610749565b9050919050565b7f4e487b7100000000000000000000000000000000000000000000000000000000600052601160045260246000fd5b60006107c6826105b3565b91506107d1836105b3565b92508282039050818111156107e9576107e861078c565b5b92915050565b60006107fa826105b3565b9150610805836105b3565b925082820190508082111561081d5761081c61078c565b5b9291505056fea2646970667358221220a9ad9e83774bc17752eaf83c1eb82bdbdd84183279b1bd03a1762ecbf207eee464736f6c63430008140033",
  "linkReferences": {},
  "deployedLinkReferences": {}
}